{
  "abi": [
    {
      "inputs": [
        {
          "internalType": "address",
          "name": "_token0",
          "type": "address"
        },
        {
          "internalType": "address",
          "name": "_token1",
          "type": "address"
        },
        {
          "internalType": "uint24",
          "name": "_fee",
          "type": "uint24"
        },
        {
          "internalType": "int24",
          "name": "_tickSpacing",
          "type": "int24"
        }
      ],
      "stateMutability": "nonpayable",
      "type": "constructor"
    },
    {
      "anonymous": false,
      "inputs": [
        {
          "indexed": true,
          "internalType": "address",
          "name": "owner",
          "type": "address"
        },
        {
          "indexed": true,
          "internalType": "int24",
          "name": "tickLower",
          "type": "int24"
        },
        {
          "indexed": true,
          "internalType": "int24",
          "name": "tickUpper",
          "type": "int24"
        },
        {
          "indexed": false,
          "internalType": "uint128",
          "name": "amount",
          "type": "uint128"
        },
        {
          "indexed": false,
          "internalType": "uint256",
          "name": "amount0",
          "type": "uint256"
        },
        {
          "indexed": false,
          "internalType": "uint256",
          "name": "amount1",
          "type": "uint256"
        }
      ],
      "name": "Burn",
      "type": "event"
    },
    {
      "anonymous": false,
      "inputs": [
        {
          "indexed": true,
          "internalType": "address",
          "name": "owner",
          "type": "address"
        },
        {
          "indexed": false,
          "internalType": "address",
          "name": "recipient",
          "type": "address"
        },
        {
          "indexed": true,
          "internalType": "int24",
          "name": "tickLower",
          "type": "int24"
        },
        {
          "indexed": true,
          "internalType": "int24",
          "name": "tickUpper",
          "type": "int24"
        },
        {
          "indexed": false,
          "internalType": "uint128",
          "name": "amount0",
          "type": "uint128"
        },
        {
          "indexed": false,
          "internalType": "uint128",
          "name": "amount1",
          "type": "uint128"
        }
      ],
      "name": "Collect",
      "type": "event"
    },
    {
      "anonymous": false,
      "inputs": [
        {
          "indexed": true,
          "internalType": "address",
          "name": "sender",
          "type": "address"
        },
        {
          "indexed": true,
          "internalType": "address",
          "name": "recipient",
          "type": "address"
        },
        {
          "indexed": false,
          "internalType": "uint128",
          "name": "amount0",
          "type": "uint128"
        },
        {
          "indexed": false,
          "internalType": "uint128",
          "name": "amount1",
          "type": "uint128"
        }
      ],
      "name": "CollectProtocol",
      "type": "event"
    },
    {
      "anonymous": false,
      "inputs": [
        {
          "indexed": false,
          "internalType": "uint256",
          "name": "num",
          "type": "uint256"
        }
      ],
      "name": "Debug",
      "type": "event"
    },
    {
      "anonymous": false,
      "inputs": [
        {
          "indexed": true,
          "internalType": "address",
          "name": "sender",
          "type": "address"
        },
        {
          "indexed": true,
          "internalType": "address",
          "name": "recipient",
          "type": "address"
        },
        {
          "indexed": false,
          "internalType": "uint256",
          "name": "amount0",
          "type": "uint256"
        },
        {
          "indexed": false,
          "internalType": "uint256",
          "name": "amount1",
          "type": "uint256"
        },
        {
          "indexed": false,
          "internalType": "uint256",
          "name": "paid0",
          "type": "uint256"
        },
        {
          "indexed": false,
          "internalType": "uint256",
          "name": "paid1",
          "type": "uint256"
        }
      ],
      "name": "Flash",
      "type": "event"
    },
    {
      "anonymous": false,
      "inputs": [
        {
          "indexed": false,
          "internalType": "uint16",
          "name": "observationCardinalityNextOld",
          "type": "uint16"
        },
        {
          "indexed": false,
          "internalType": "uint16",
          "name": "observationCardinalityNextNew",
          "type": "uint16"
        }
      ],
      "name": "IncreaseObservationCardinalityNext",
      "type": "event"
    },
    {
      "anonymous": false,
      "inputs": [
        {
          "indexed": false,
          "internalType": "uint160",
          "name": "sqrtPriceX96",
          "type": "uint160"
        },
        {
          "indexed": false,
          "internalType": "int24",
          "name": "tick",
          "type": "int24"
        }
      ],
      "name": "Initialize",
      "type": "event"
    },
    {
      "anonymous": false,
      "inputs": [
        {
          "indexed": false,
          "internalType": "address",
          "name": "sender",
          "type": "address"
        },
        {
          "indexed": true,
          "internalType": "address",
          "name": "owner",
          "type": "address"
        },
        {
          "indexed": true,
          "internalType": "int24",
          "name": "tickLower",
          "type": "int24"
        },
        {
          "indexed": true,
          "internalType": "int24",
          "name": "tickUpper",
          "type": "int24"
        },
        {
          "indexed": false,
          "internalType": "uint128",
          "name": "amount",
          "type": "uint128"
        },
        {
          "indexed": false,
          "internalType": "uint256",
          "name": "amount0",
          "type": "uint256"
        },
        {
          "indexed": false,
          "internalType": "uint256",
          "name": "amount1",
          "type": "uint256"
        }
      ],
      "name": "Mint",
      "type": "event"
    },
    {
      "anonymous": false,
      "inputs": [
        {
          "indexed": false,
          "internalType": "uint8",
          "name": "feeProtocol0Old",
          "type": "uint8"
        },
        {
          "indexed": false,
          "internalType": "uint8",
          "name": "feeProtocol1Old",
          "type": "uint8"
        },
        {
          "indexed": false,
          "internalType": "uint8",
          "name": "feeProtocol0New",
          "type": "uint8"
        },
        {
          "indexed": false,
          "internalType": "uint8",
          "name": "feeProtocol1New",
          "type": "uint8"
        }
      ],
      "name": "SetFeeProtocol",
      "type": "event"
    },
    {
      "anonymous": false,
      "inputs": [
        {
          "indexed": true,
          "internalType": "address",
          "name": "sender",
          "type": "address"
        },
        {
          "indexed": true,
          "internalType": "address",
          "name": "recipient",
          "type": "address"
        },
        {
          "indexed": false,
          "internalType": "int256",
          "name": "amount0",
          "type": "int256"
        },
        {
          "indexed": false,
          "internalType": "int256",
          "name": "amount1",
          "type": "int256"
        },
        {
          "indexed": false,
          "internalType": "uint160",
          "name": "sqrtPriceX96",
          "type": "uint160"
        },
        {
          "indexed": false,
          "internalType": "uint128",
          "name": "liquidity",
          "type": "uint128"
        },
        {
          "indexed": false,
          "internalType": "int24",
          "name": "tick",
          "type": "int24"
        }
      ],
      "name": "Swap",
      "type": "event"
    },
    {
      "inputs": [],
      "name": "admin",
      "outputs": [
        {
          "internalType": "address",
          "name": "",
          "type": "address"
        }
      ],
      "stateMutability": "view",
      "type": "function"
    },
    {
      "inputs": [
        {
          "internalType": "int24",
          "name": "tickLower",
          "type": "int24"
        },
        {
          "internalType": "int24",
          "name": "tickUpper",
          "type": "int24"
        },
        {
          "internalType": "uint128",
          "name": "amount",
          "type": "uint128"
        }
      ],
      "name": "burn",
      "outputs": [
        {
          "internalType": "uint256",
          "name": "amount0",
          "type": "uint256"
        },
        {
          "internalType": "uint256",
          "name": "amount1",
          "type": "uint256"
        }
      ],
      "stateMutability": "nonpayable",
      "type": "function"
    },
    {
      "inputs": [
        {
          "internalType": "address",
          "name": "recipient",
          "type": "address"
        },
        {
          "internalType": "int24",
          "name": "tickLower",
          "type": "int24"
        },
        {
          "internalType": "int24",
          "name": "tickUpper",
          "type": "int24"
        },
        {
          "internalType": "uint128",
          "name": "amount0Requested",
          "type": "uint128"
        },
        {
          "internalType": "uint128",
          "name": "amount1Requested",
          "type": "uint128"
        }
      ],
      "name": "collect",
      "outputs": [
        {
          "internalType": "uint128",
          "name": "amount0",
          "type": "uint128"
        },
        {
          "internalType": "uint128",
          "name": "amount1",
          "type": "uint128"
        }
      ],
      "stateMutability": "nonpayable",
      "type": "function"
    },
    {
      "inputs": [
        {
          "internalType": "address",
          "name": "recipient",
          "type": "address"
        },
        {
          "internalType": "uint128",
          "name": "amount0Requested",
          "type": "uint128"
        },
        {
          "internalType": "uint128",
          "name": "amount1Requested",
          "type": "uint128"
        }
      ],
      "name": "collectProtocol",
      "outputs": [
        {
          "internalType": "uint128",
          "name": "amount0",
          "type": "uint128"
        },
        {
          "internalType": "uint128",
          "name": "amount1",
          "type": "uint128"
        }
      ],
      "stateMutability": "nonpayable",
      "type": "function"
    },
    {
      "inputs": [],
      "name": "fee",
      "outputs": [
        {
          "internalType": "uint24",
          "name": "",
          "type": "uint24"
        }
      ],
      "stateMutability": "view",
      "type": "function"
    },
    {
      "inputs": [],
      "name": "feeGrowthGlobal0X128",
      "outputs": [
        {
          "internalType": "uint256",
          "name": "",
          "type": "uint256"
        }
      ],
      "stateMutability": "view",
      "type": "function"
    },
    {
      "inputs": [],
      "name": "feeGrowthGlobal1X128",
      "outputs": [
        {
          "internalType": "uint256",
          "name": "",
          "type": "uint256"
        }
      ],
      "stateMutability": "view",
      "type": "function"
    },
    {
      "inputs": [
        {
          "internalType": "uint128",
          "name": "bidX96",
          "type": "uint128"
        },
        {
          "internalType": "uint128",
          "name": "askX96",
          "type": "uint128"
        }
      ],
      "name": "finishSwap",
      "outputs": [
        {
          "internalType": "int256",
          "name": "amount0",
          "type": "int256"
        },
        {
          "internalType": "int256",
          "name": "amount1",
          "type": "int256"
        }
      ],
      "stateMutability": "nonpayable",
      "type": "function"
    },
    {
      "inputs": [
        {
          "internalType": "address",
          "name": "recipient",
          "type": "address"
        },
        {
          "internalType": "uint256",
          "name": "amount0",
          "type": "uint256"
        },
        {
          "internalType": "uint256",
          "name": "amount1",
          "type": "uint256"
        },
        {
          "internalType": "bytes",
          "name": "data",
          "type": "bytes"
        }
      ],
      "name": "flash",
      "outputs": [],
      "stateMutability": "nonpayable",
      "type": "function"
    },
    {
      "inputs": [
        {
          "internalType": "uint16",
          "name": "observationCardinalityNext",
          "type": "uint16"
        }
      ],
      "name": "increaseObservationCardinalityNext",
      "outputs": [],
      "stateMutability": "nonpayable",
      "type": "function"
    },
    {
      "inputs": [
        {
          "internalType": "uint160",
          "name": "sqrtPriceX96",
          "type": "uint160"
        }
      ],
      "name": "initialize",
      "outputs": [],
      "stateMutability": "nonpayable",
      "type": "function"
    },
    {
      "inputs": [],
      "name": "liquidity",
      "outputs": [
        {
          "internalType": "uint128",
          "name": "",
          "type": "uint128"
        }
      ],
      "stateMutability": "view",
      "type": "function"
    },
    {
      "inputs": [],
      "name": "maxLiquidityPerTick",
      "outputs": [
        {
          "internalType": "uint128",
          "name": "",
          "type": "uint128"
        }
      ],
      "stateMutability": "view",
      "type": "function"
    },
    {
      "inputs": [
        {
          "internalType": "address",
          "name": "recipient",
          "type": "address"
        },
        {
          "internalType": "int24",
          "name": "tickLower",
          "type": "int24"
        },
        {
          "internalType": "int24",
          "name": "tickUpper",
          "type": "int24"
        },
        {
          "internalType": "uint128",
          "name": "amount",
          "type": "uint128"
        },
        {
          "internalType": "bytes",
          "name": "data",
          "type": "bytes"
        }
      ],
      "name": "mint",
      "outputs": [
        {
          "internalType": "uint256",
          "name": "amount0",
          "type": "uint256"
        },
        {
          "internalType": "uint256",
          "name": "amount1",
          "type": "uint256"
        }
      ],
      "stateMutability": "nonpayable",
      "type": "function"
    },
    {
      "inputs": [
        {
          "internalType": "uint256",
          "name": "",
          "type": "uint256"
        }
      ],
      "name": "observations",
      "outputs": [
        {
          "internalType": "uint32",
          "name": "blockTimestamp",
          "type": "uint32"
        },
        {
          "internalType": "int56",
          "name": "tickCumulative",
          "type": "int56"
        },
        {
          "internalType": "uint160",
          "name": "secondsPerLiquidityCumulativeX128",
          "type": "uint160"
        },
        {
          "internalType": "bool",
          "name": "initialized",
          "type": "bool"
        }
      ],
      "stateMutability": "view",
      "type": "function"
    },
    {
      "inputs": [
        {
          "internalType": "uint32[]",
          "name": "secondsAgos",
          "type": "uint32[]"
        }
      ],
      "name": "observe",
      "outputs": [
        {
          "internalType": "int56[]",
          "name": "tickCumulatives",
          "type": "int56[]"
        },
        {
          "internalType": "uint160[]",
          "name": "secondsPerLiquidityCumulativeX128s",
          "type": "uint160[]"
        }
      ],
      "stateMutability": "view",
      "type": "function"
    },
    {
      "inputs": [
        {
          "internalType": "bytes32",
          "name": "",
          "type": "bytes32"
        }
      ],
      "name": "positions",
      "outputs": [
        {
          "internalType": "uint128",
          "name": "liquidity",
          "type": "uint128"
        },
        {
          "internalType": "uint256",
          "name": "feeGrowthInside0LastX128",
          "type": "uint256"
        },
        {
          "internalType": "uint256",
          "name": "feeGrowthInside1LastX128",
          "type": "uint256"
        },
        {
          "internalType": "uint128",
          "name": "tokensOwed0",
          "type": "uint128"
        },
        {
          "internalType": "uint128",
          "name": "tokensOwed1",
          "type": "uint128"
        }
      ],
      "stateMutability": "view",
      "type": "function"
    },
    {
      "inputs": [],
      "name": "protocolFees",
      "outputs": [
        {
          "internalType": "uint128",
          "name": "token0",
          "type": "uint128"
        },
        {
          "internalType": "uint128",
          "name": "token1",
          "type": "uint128"
        }
      ],
      "stateMutability": "view",
      "type": "function"
    },
    {
      "inputs": [
        {
          "internalType": "bytes",
          "name": "encodedMsg",
          "type": "bytes"
        }
      ],
      "name": "receiveVAA",
      "outputs": [],
      "stateMutability": "nonpayable",
      "type": "function"
    },
    {
      "inputs": [
        {
          "internalType": "uint8",
          "name": "feeProtocol0",
          "type": "uint8"
        },
        {
          "internalType": "uint8",
          "name": "feeProtocol1",
          "type": "uint8"
        }
      ],
      "name": "setFeeProtocol",
      "outputs": [],
      "stateMutability": "nonpayable",
      "type": "function"
    },
    {
      "inputs": [
        {
          "internalType": "address",
          "name": "addr",
          "type": "address"
        }
      ],
      "name": "setWormhole",
      "outputs": [],
      "stateMutability": "nonpayable",
      "type": "function"
    },
    {
      "inputs": [],
      "name": "slot0",
      "outputs": [
        {
          "internalType": "uint160",
          "name": "sqrtPriceX96",
          "type": "uint160"
        },
        {
          "internalType": "int24",
          "name": "tick",
          "type": "int24"
        },
        {
          "internalType": "uint16",
          "name": "observationIndex",
          "type": "uint16"
        },
        {
          "internalType": "uint16",
          "name": "observationCardinality",
          "type": "uint16"
        },
        {
          "internalType": "uint16",
          "name": "observationCardinalityNext",
          "type": "uint16"
        },
        {
          "internalType": "uint8",
          "name": "feeProtocol",
          "type": "uint8"
        },
        {
          "internalType": "bool",
          "name": "unlocked",
          "type": "bool"
        }
      ],
      "stateMutability": "view",
      "type": "function"
    },
    {
      "inputs": [
        {
          "internalType": "int24",
          "name": "tickLower",
          "type": "int24"
        },
        {
          "internalType": "int24",
          "name": "tickUpper",
          "type": "int24"
        }
      ],
      "name": "snapshotCumulativesInside",
      "outputs": [
        {
          "internalType": "int56",
          "name": "tickCumulativeInside",
          "type": "int56"
        },
        {
          "internalType": "uint160",
          "name": "secondsPerLiquidityInsideX128",
          "type": "uint160"
        },
        {
          "internalType": "uint32",
          "name": "secondsInside",
          "type": "uint32"
        }
      ],
      "stateMutability": "view",
      "type": "function"
    },
    {
      "inputs": [
        {
          "internalType": "address",
          "name": "recipient",
          "type": "address"
        },
        {
          "internalType": "bool",
          "name": "zeroForOne",
          "type": "bool"
        },
        {
          "internalType": "int256",
          "name": "amountSpecified",
          "type": "int256"
        },
        {
          "internalType": "uint160",
          "name": "sqrtPriceLimitX96",
          "type": "uint160"
        }
      ],
      "name": "startSwap",
      "outputs": [],
      "stateMutability": "nonpayable",
      "type": "function"
    },
    {
      "inputs": [
        {
          "internalType": "address",
          "name": "recipient",
          "type": "address"
        },
        {
          "internalType": "bool",
          "name": "zeroForOne",
          "type": "bool"
        },
        {
          "internalType": "int256",
          "name": "amountSpecified",
          "type": "int256"
        },
        {
          "internalType": "uint160",
          "name": "sqrtPriceLimitX96",
          "type": "uint160"
        },
        {
          "internalType": "bytes",
          "name": "data",
          "type": "bytes"
        }
      ],
      "name": "swap",
      "outputs": [
        {
          "internalType": "int256",
          "name": "amount0",
          "type": "int256"
        },
        {
          "internalType": "int256",
          "name": "amount1",
          "type": "int256"
        }
      ],
      "stateMutability": "nonpayable",
      "type": "function"
    },
    {
      "inputs": [
        {
          "internalType": "int16",
          "name": "",
          "type": "int16"
        }
      ],
      "name": "tickBitmap",
      "outputs": [
        {
          "internalType": "uint256",
          "name": "",
          "type": "uint256"
        }
      ],
      "stateMutability": "view",
      "type": "function"
    },
    {
      "inputs": [],
      "name": "tickSpacing",
      "outputs": [
        {
          "internalType": "int24",
          "name": "",
          "type": "int24"
        }
      ],
      "stateMutability": "view",
      "type": "function"
    },
    {
      "inputs": [
        {
          "internalType": "int24",
          "name": "",
          "type": "int24"
        }
      ],
      "name": "ticks",
      "outputs": [
        {
          "internalType": "uint128",
          "name": "liquidityGross",
          "type": "uint128"
        },
        {
          "internalType": "int128",
          "name": "liquidityNet",
          "type": "int128"
        },
        {
          "internalType": "uint256",
          "name": "feeGrowthOutside0X128",
          "type": "uint256"
        },
        {
          "internalType": "uint256",
          "name": "feeGrowthOutside1X128",
          "type": "uint256"
        },
        {
          "internalType": "int56",
          "name": "tickCumulativeOutside",
          "type": "int56"
        },
        {
          "internalType": "uint160",
          "name": "secondsPerLiquidityOutsideX128",
          "type": "uint160"
        },
        {
          "internalType": "uint32",
          "name": "secondsOutside",
          "type": "uint32"
        },
        {
          "internalType": "bool",
          "name": "initialized",
          "type": "bool"
        }
      ],
      "stateMutability": "view",
      "type": "function"
    },
    {
      "inputs": [],
      "name": "token0",
      "outputs": [
        {
          "internalType": "address",
          "name": "",
          "type": "address"
        }
      ],
      "stateMutability": "view",
      "type": "function"
    },
    {
      "inputs": [],
      "name": "token1",
      "outputs": [
        {
          "internalType": "address",
          "name": "",
          "type": "address"
        }
      ],
      "stateMutability": "view",
      "type": "function"
    }
  ],
  "bytecode": {
    "object": "0x610160604052600580546001600160a01b031990811673706abc4e45d419950511e474c7b9ed348a4a716c1791829055600680549091166001600160a01b03929092169190911790553480156200005557600080fd5b5060405162005b3138038062005b3183398101604081905262000078916200017c565b30606090811b60805284811b6001600160601b031990811660c0529084901b1660e05260e882811b6001600160e81b03191661010052600282810b900b901b61012052620000d281620000f4602090811b6200224517901c565b60801b6001600160801b031916610140525050503360601b60a05250620001e8565b60008082600281900b620d89e719816200010a57fe5b05029050600083600281900b620d89e8816200012257fe5b0502905060008460020b83830360020b816200013a57fe5b0560010190508062ffffff166001600160801b038016816200015857fe5b0493505050505b919050565b80516001600160a01b03811681146200015f57600080fd5b6000806000806080858703121562000192578384fd5b6200019d8562000164565b9350620001ad6020860162000164565b9250604085015162ffffff81168114620001c5578283fd5b8092505060608501518060020b8114620001dd578182fd5b939692955090935050565b60805160601c60a05160601c60c05160601c60e05160601c6101005160e81c6101205160e81c6101405160801c61587c620002b560003980611af65280613f755280613fac525080610c285280611f575280613fe05280614012525080610d175280611fce5250806112c0528061141352806116f25280611a0f5280611d4a5280611f7b52806134fc52508061046f52806112f752806113dc528061164f52806119a95280611cc452806133ee525080611b595280611bdf52806122235250806122bc525061587c6000f3fe608060405234801561001057600080fd5b50600436106101da5760003560e01c80635339c29611610104578063d0c93a7c116100a2578063f305839911610071578063f305839914610423578063f30dba931461042b578063f637731d14610452578063f851a44014610465576101da565b8063d0c93a7c146103de578063d21220a7146103f3578063d49f53b8146103fb578063ddca3f431461040e576101da565b806385b66729116100de57806385b6672914610375578063883bdbfd14610388578063a34123a7146103a9578063a38807f2146103bc576101da565b80635339c2961461034757806370cf754a1461035a5780638206a4d114610362576101da565b806332148f671161017c578063461413191161014b57806346141319146102e8578063490e6cbc146102fd5780634f1eb3d814610310578063514ea4bf14610323576101da565b806332148f67146102945780633850c7bd146102a75780633961ea85146102c25780633c8a7d8d146102d5576101da565b80631a62df66116101b85780631a62df66146102335780631a686502146102465780631ad8b03b1461025b578063252c09d714610271576101da565b80630dfe1681146101df5780630efc4d17146101fd578063128acb0814610212575b600080fd5b6101e761046d565b6040516101f4919061523b565b60405180910390f35b61021061020b366004614f17565b610491565b005b610225610220366004614c95565b61063a565b6040516101f492919061538f565b610210610241366004614c43565b61065d565b61024e6107d8565b6040516101f4919061560f565b6102636107e7565b6040516101f492919061567b565b61028461027f366004614eff565b610801565b6040516101f4949392919061575d565b6102106102a236600461516d565b610846565b6102af61089a565b6040516101f49796959493929190615704565b6102256102d0366004615144565b6108ea565b6102256102e3366004614d17565b61156b565b6102f061185d565b6040516101f491906153ff565b61021061030b366004614e0e565b611863565b61026361031e366004614d64565b6118b9565b610336610331366004614eff565b611aa5565b6040516101f49594939291906156b6565b6102f0610355366004614f56565b611ae2565b61024e611af4565b6102106103703660046151bb565b611b18565b610263610383366004614dca565b611b9b565b61039b610396366004614e75565b611ddd565b6040516101f49291906152cc565b6102256103b7366004614fc3565b611def565b6103cf6103ca366004614f91565b611f41565b6040516101f4939291906153d5565b6103e6611f55565b6040516101f49190615381565b6101e7611f79565b610210610409366004614c27565b611f9d565b610416611fcc565b6040516101f4919061574d565b6102f0611ff0565b61043e610439366004614f77565b611ff6565b6040516101f4989796959493929190615623565b610210610460366004614c27565b612060565b6101e7612221565b7f000000000000000000000000000000000000000000000000000000000000000081565b60065460405163607ec5ef60e11b8152600091829182916001600160a01b03169063c0fd8bde906104c89088908890600401615352565b60006040518083038186803b1580156104e057600080fd5b505afa1580156104f4573d6000803e3d6000fd5b505050506040513d6000823e601f3d908101601f1916820160405261051c9190810190614fee565b92509250925081819061054b5760405162461bcd60e51b8152600401610542919061543a565b60405180910390fd5b5060e083015160405160008051602061582783398151915290610570906003906153ff565b60405180910390a16000805b60108110156105a65782818151811061059157fe5b016020015160f81c919091019060010161057c565b50600060105b60208110156105d6578381815181106105c157fe5b016020015160f81c91909101906001016105ac565b506000816001600160801b0316836001600160801b0316106105f857816105fa565b825b90506000826001600160801b0316846001600160801b0316101561061e5782610620565b835b905061062c82826108ea565b505050505050505050505050565b6000806106456122b1565b60405162461bcd60e51b8152600401610542906154ed565b6106656122b1565b816106825760405162461bcd60e51b815260040161054290615492565b6201000980546001600160a01b03199081166001600160a01b038781169190911760ff60a01b1916600160a01b87151502179092556201000a8490556201000b8054909116918316919091179055604080516001808252818301909252600091602082018180368337019050509050604560f81b8160008151811061070357fe5b60200101906001600160f81b031916908160001a9053506006546040516358cd21bf60e11b81526000916001600160a01b03169063b19a437e9061075190604590869060c890600401615408565b602060405180830381600087803b15801561076b57600080fd5b505af115801561077f573d6000803e3d6000fd5b505050506040513d601f19601f820116820180604052508101906107a391906151a1565b6201000b80546001600160401b03909216600160a01b0267ffffffffffffffff60a01b19909216919091179055505050505050565b6004546001600160801b031681565b6003546001600160801b0380821691600160801b90041682565b600a8161ffff811061081257600080fd5b015463ffffffff81169150600160201b810460060b90600160581b81046001600160a01b031690600160f81b900460ff1684565b600054600160f01b900460ff1661086f5760405162461bcd60e51b8152600401610542906155d5565b6000805460ff60f01b191690556108846122b1565b506000805460ff60f01b1916600160f01b179055565b6000546001600160a01b03811690600160a01b810460020b9061ffff600160b81b8204811691600160c81b8104821691600160d81b8204169060ff600160e81b8204811691600160f01b90041687565b6000806108f56122b1565b62010009546201000a546201000b546040805160e081018252600080546001600160a01b038181168452600160a01b808304600290810b810b900b602086015261ffff600160b81b8404811686880152600160c81b840481166060870152600160d81b8404166080860152600160e81b830460ff90811660a0870152600160f01b84048116151560c08088019190915260ff60f01b199094168555865193840190965281891698049490941695949093169280866109be5760048460a0015160ff16901c6109d1565b60108460a0015160ff16816109cf57fe5b065b60ff1681526004546001600160801b031660208201526040016109f26122e8565b63ffffffff168152602001600060060b815260200160006001600160a01b0316815260200160001515815250905060006040518060e001604052808681526020016000815260200184600001516001600160a01b03168152602001846020015160020b815260200187610a6757600254610a6b565b6001545b815260200160006001600160801b0316815260200183602001516001600160801b031681525090506000808613905060006030610aa78e6122ec565b6001600160801b0316901b905060006030610ac18e6122ec565b6001600160801b0316901b9050600089610adb578d610add565b8e5b905060008a610aec5782610aee565b835b90508760c00151610b115760405162461bcd60e51b8152600401610542906155d5565b8a610b5c5787600001516001600160a01b0316896001600160a01b0316118015610b57575073fffd8963efd1fc6a506488495d951d5263988d266001600160a01b038a16105b610b8e565b87600001516001600160a01b0316896001600160a01b0316108015610b8e57506401000276a36001600160a01b038a16115b610baa5760405162461bcd60e51b81526004016105429061557d565b8a610bc957806001600160801b0316896001600160a01b031611610bdf565b806001600160801b0316896001600160a01b0316105b610bfb5760405162461bcd60e51b8152600401610542906154d0565b85511561108b57610c0a6149dd565b60408701516001600160a01b031681526060870151610c4d906008907f00000000000000000000000000000000000000000000000000000000000000008f612385565b15156040830152600290810b810b60208301819052620d89e719910b1215610c7e57620d89e7196020820152610c9d565b6020810151620d89e860029190910b1315610c9d57620d89e860208201525b610caa81602001516124c7565b6001600160a01b031660608201526040870151610d3b908d610ce4578b6001600160a01b031683606001516001600160a01b031611610cfe565b8b6001600160a01b031683606001516001600160a01b0316105b610d0c578260600151610d0e565b8b5b60c08a01518a517f00000000000000000000000000000000000000000000000000000000000000006127f8565b60c085015260a0840152608083019081526001600160a01b0390911660408901525115801590610db157508b8015610d88575086604001516001600160a01b0316826001600160801b0316105b80610db157508b158015610db15750816001600160801b031687604001516001600160a01b0316105b15610e1c5760008c610ddd57836001600160801b031660608360800151901b81610dd757fe5b04610df1565b60808201516001600160801b0385160260601c5b9050808260a0015111610e165760405162461bcd60e51b8152600401610542906154ae565b60a08201525b8515610e6157610e358160c001518260800151016129ea565b875103875260a0810151610e5790610e4c906129ea565b602089015190612a00565b6020880152610e9c565b610e6e8160a001516129ea565b875101875260c08101516080820151610e9691610e8b91016129ea565b602089015190612a1c565b60208801525b875160ff1615610ee2576000886000015160ff168260c0015181610ebc57fe5b60c0840180519290910491829003905260a0890180519091016001600160801b03169052505b60c08701516001600160801b031615610f2157610f158160c00151600160801b8960c001516001600160801b0316612a32565b60808801805190910190525b80606001516001600160a01b031687604001516001600160a01b0316141561104a57806040015115611021578760a00151610fab57610f89886040015160008b602001518c604001518c602001518e60600151600a612ae2909695949392919063ffffffff16565b6001600160a01b031660808a0152600690810b900b6060890152600160a08901525b6000610ff782602001518e610fc257600154610fc8565b89608001515b8f610fd7578a60800151610fdb565b6002545b60808d015160608e015160408f01516007959493929190612c74565b90508c15611003576000035b6110118860c0015182612d2e565b6001600160801b031660c0890152505b8b611030578060200151611039565b60018160200151035b600290810b900b6060880152611085565b80600001516001600160a01b031687604001516001600160a01b031614611085576110788760400151612de4565b600290810b900b60608801525b50610bfb565b50505050836020015160020b826060015160020b1461115d576000806110dd86604001518660400151886020015188602001518a606001518b60800151600a6130fe909695949392919063ffffffff16565b604086015160608701516000805461ffff60c81b1916600160c81b61ffff958616021761ffff60b81b1916600160b81b95909416949094029290921762ffffff60a01b1916600160a01b62ffffff60029490940b9390931692909202919091176001600160a01b0319166001600160a01b03909116179055506111829050565b6040820151600080546001600160a01b0319166001600160a01b039092169190911790555b8160c001516001600160801b031683602001516001600160801b0316146111c85760c0820151600480546001600160801b0319166001600160801b039092169190911790555b861561121857608082015160015560a08201516001600160801b0316156112135760a0820151600380546001600160801b031981166001600160801b03918216909301169190911790555b61125e565b608082015160025560a08201516001600160801b03161561125e5760a0820151600380546001600160801b03808216600160801b92839004821690940116029190911790555b8015158715151461127757602082015182518703611284565b8160000151860382602001515b604080516001808252818301909252929c50909a506000919060208201818036833701905050905087156113ce5760008a12156112e9576112e97f00000000000000000000000000000000000000000000000000000000000000008a8c600003613299565b60006112f36133e7565b90507f00000000000000000000000000000000000000000000000000000000000000006001600160a01b03166323b872dd33308f6040518463ffffffff1660e01b81526004016113459392919061524f565b602060405180830381600087803b15801561135f57600080fd5b505af1158015611373573d6000803e3d6000fd5b505050506040513d601f19601f820116820180604052508101906113979190614ee3565b506113a06133e7565b6113aa828e6134e5565b11156113c85760405162461bcd60e51b8152600401610542906155f2565b506114e6565b60008b1215611405576114057f00000000000000000000000000000000000000000000000000000000000000008a8d600003613299565b600061140f6134f5565b90507f00000000000000000000000000000000000000000000000000000000000000006001600160a01b03166323b872dd33308e6040518463ffffffff1660e01b81526004016114619392919061524f565b602060405180830381600087803b15801561147b57600080fd5b505af115801561148f573d6000803e3d6000fd5b505050506040513d601f19601f820116820180604052508101906114b39190614ee3565b506114bc6134f5565b6114c6828d6134e5565b11156114e45760405162461bcd60e51b8152600401610542906155f2565b505b50876001600160a01b0316336001600160a01b03167fc42079f94a6350d7e6235f29174924f928cc2ac818eb64fed8004e115fbcca678c8c86604001518760c00151886060015160405161153e95949392919061539d565b60405180910390a350506000805460ff60f01b1916600160f01b1790555095989497509395505050505050565b600080548190600160f01b900460ff166115975760405162461bcd60e51b8152600401610542906155d5565b6000805460ff60f01b191690556001600160801b0385166115b757600080fd5b60008061160560405180608001604052808c6001600160a01b031681526020018b60020b81526020018a60020b81526020016115fb8a6001600160801b031661353d565b600f0b905261354e565b92509250508193508092506000806000861115611627576116246133e7565b91505b8415611638576116356134f5565b90505b6040516323b872dd60e01b81526001600160a01b037f000000000000000000000000000000000000000000000000000000000000000016906323b872dd9061168890339030908b9060040161524f565b602060405180830381600087803b1580156116a257600080fd5b505af11580156116b6573d6000803e3d6000fd5b505050506040513d601f19601f820116820180604052508101906116da9190614ee3565b506040516323b872dd60e01b81526001600160a01b037f000000000000000000000000000000000000000000000000000000000000000016906323b872dd9061172b90339030908a9060040161524f565b602060405180830381600087803b15801561174557600080fd5b505af1158015611759573d6000803e3d6000fd5b505050506040513d601f19601f8201168201806040525081019061177d9190614ee3565b5085156117b45761178c6133e7565b61179683886134e5565b11156117b45760405162461bcd60e51b815260040161054290615544565b84156117ea576117c26134f5565b6117cc82876134e5565b11156117ea5760405162461bcd60e51b81526004016105429061559a565b8960020b8b60020b8d6001600160a01b03167f7a53080ba414158be7ec69b987b5fb7d07dee101fe85488f0853ae16239d0bde338d8b8b6040516118319493929190615273565b60405180910390a450506000805460ff60f01b1916600160f01b17905550919890975095505050505050565b60025481565b600054600160f01b900460ff1661188c5760405162461bcd60e51b8152600401610542906155d5565b6000805460ff60f01b191690556118a16122b1565b60405162461bcd60e51b8152600401610542906155b6565b600080548190600160f01b900460ff166118e55760405162461bcd60e51b8152600401610542906155d5565b6000805460ff60f01b191681556118ff600933898961378e565b60038101549091506001600160801b0390811690861611611920578461192f565b60038101546001600160801b03165b60038201549093506001600160801b03600160801b909104811690851611611957578361196d565b6003810154600160801b90046001600160801b03165b91506001600160801b038316156119d2576003810180546001600160801b031981166001600160801b039182168690038216179091556119d2907f0000000000000000000000000000000000000000000000000000000000000000908a908616613299565b6001600160801b03821615611a38576003810180546001600160801b03600160801b808304821686900382160291811691909117909155611a38907f0000000000000000000000000000000000000000000000000000000000000000908a908516613299565b8560020b8760020b336001600160a01b03167f70935338e69775456a85ddef226c395fb668b63fa0115f5f20610b388e6ca9c08b8787604051611a7d939291906152a2565b60405180910390a4506000805460ff60f01b1916600160f01b17905590969095509350505050565b60096020526000908152604090208054600182015460028301546003909301546001600160801b0392831693919281811691600160801b90041685565b60086020526000908152604090205481565b7f000000000000000000000000000000000000000000000000000000000000000081565b600054600160f01b900460ff16611b415760405162461bcd60e51b8152600401610542906155d5565b6000805460ff60f01b19169055336001600160a01b037f00000000000000000000000000000000000000000000000000000000000000001614611b8357600080fd5b60405162461bcd60e51b81526004016105429061546a565b600080548190600160f01b900460ff16611bc75760405162461bcd60e51b8152600401610542906155d5565b6000805460ff60f01b19169055336001600160a01b037f00000000000000000000000000000000000000000000000000000000000000001614611c0957600080fd5b6003546001600160801b0390811690851611611c255783611c32565b6003546001600160801b03165b6003549092506001600160801b03600160801b909104811690841611611c585782611c6c565b600354600160801b90046001600160801b03165b90506001600160801b03821615611ced576003546001600160801b0383811691161415611c9b57600019909101905b600380546001600160801b031981166001600160801b03918216859003821617909155611ced907f00000000000000000000000000000000000000000000000000000000000000009087908516613299565b6001600160801b03811615611d73576003546001600160801b03828116600160801b909204161415611d1e57600019015b600380546001600160801b03600160801b808304821685900382160291811691909117909155611d73907f00000000000000000000000000000000000000000000000000000000000000009087908416613299565b846001600160a01b0316336001600160a01b03167f596b573906218d3411850b26a6b437d6c4522fdb43d2d2386263f86d50b8b1518484604051611db892919061567b565b60405180910390a36000805460ff60f01b1916600160f01b1790559094909350915050565b606080611de86122b1565b9250929050565b600080548190600160f01b900460ff16611e1b5760405162461bcd60e51b8152600401610542906155d5565b6000805460ff60f01b1916815560408051608081018252338152600288810b602083015287900b9181019190915281908190611e749060608101611e676001600160801b038a1661353d565b600003600f0b905261354e565b9250925092508160000394508060000393506000851180611e955750600084115b15611ed4576003830180546001600160801b038082168089018216600160801b93849004831689019092169092029091176001600160801b0319161790555b8660020b8860020b336001600160a01b03167f0c396cd989a39f4459b5fa1aed6a9a8dcdbc45908acfd67e028cd568da98982c898989604051611f1993929190615695565b60405180910390a450506000805460ff60f01b1916600160f01b179055509094909350915050565b6000806000611f4e6122b1565b9250925092565b7f000000000000000000000000000000000000000000000000000000000000000081565b7f000000000000000000000000000000000000000000000000000000000000000081565b600580546001600160a01b03199081166001600160a01b03938416179182905560068054929093169116179055565b7f000000000000000000000000000000000000000000000000000000000000000081565b60015481565b60076020526000908152604090208054600182015460028301546003909301546001600160801b03831693600160801b909304600f0b9290600681900b90600160381b81046001600160a01b031690600160d81b810463ffffffff1690600160f81b900460ff1688565b6000546001600160a01b0316156120895760405162461bcd60e51b81526004016105429061550b565b60008051602061582783398151915260006040516120a791906153ff565b60405180910390a160006120ba82612de4565b905060008051602061582783398151915260016040516120da91906153ff565b60405180910390a16000806120f86120f06122e8565b600a906137f2565b91509150600080516020615827833981519152600260405161211a91906153ff565b60405180910390a16040805160e0810182526001600160a01b038616808252600286810b60208401819052600084860181905261ffff888116606087018190529088166080870181905260a08701839052600160c0909701969096528154600160f01b6001600160a01b031990911690951762ffffff60a01b1916600160a01b62ffffff9490950b93909316939093029190911763ffffffff60b81b1916600160c81b9092029190911761ffff60d81b1916600160d81b9093029290921761ffff60e81b1916179055517f98636036cb66a9c19a37435efc1e90142190214e8abeb821bdba3f2990dd4c959061221390869086906156e8565b60405180910390a150505050565b7f000000000000000000000000000000000000000000000000000000000000000081565b60008082600281900b620d89e7198161225a57fe5b05029050600083600281900b620d89e88161227157fe5b0502905060008460020b83830360020b8161228857fe5b0560010190508062ffffff166001600160801b038016816122a557fe5b0493505050505b919050565b306001600160a01b037f000000000000000000000000000000000000000000000000000000000000000016146122e657600080fd5b565b4290565b60006003826001600160801b0316111561236e575080600160026001600160801b03831604015b816001600160801b0316816001600160801b0316101561236857809150600281826001600160801b0316856001600160801b03168161234e57fe5b04016001600160801b03168161236057fe5b049050612313565b506122ac565b6001600160801b038216156122ac57506001919050565b60008060008460020b8660020b8161239957fe5b05905060008660020b1280156123c057508460020b8660020b816123b957fe5b0760020b15155b156123ca57600019015b831561243f576000806123dc8361383e565b600182810b810b600090815260208d9052604090205460ff83169190911b8001600019019081168015159750929450909250908561242157888360ff16860302612434565b8861242b82613850565b840360ff168603025b9650505050506124bd565b60008061244e8360010161383e565b91509150600060018260ff166001901b031990506000818b60008660010b60010b81526020019081526020016000205416905080600014159550856124a057888360ff0360ff168660010101026124b6565b88836124ab836138ef565b0360ff168660010101025b9650505050505b5094509492505050565b60008060008360020b126124de578260020b6124e6565b8260020b6000035b9050620d89e8811115612524576040805162461bcd60e51b81526020600482015260016024820152601560fa1b604482015290519081900360640190fd5b60006001821661253857600160801b61254a565b6ffffcb933bd6fad37aa2d162d1a5940015b70ffffffffffffffffffffffffffffffffff169050600282161561257e576ffff97272373d413259a46990580e213a0260801c5b600482161561259d576ffff2e50f5f656932ef12357cf3c7fdcc0260801c5b60088216156125bc576fffe5caca7e10e4e61c3624eaa0941cd00260801c5b60108216156125db576fffcb9843d60f6159c9db58835c9266440260801c5b60208216156125fa576fff973b41fa98c081472e6896dfb254c00260801c5b6040821615612619576fff2ea16466c96a3843ec78b326b528610260801c5b6080821615612638576ffe5dee046a99a2a811c461f1969c30530260801c5b610100821615612658576ffcbe86c7900a88aedcffc83b479aa3a40260801c5b610200821615612678576ff987a7253ac413176f2b074cf7815e540260801c5b610400821615612698576ff3392b0822b70005940c7a398e4b70f30260801c5b6108008216156126b8576fe7159475a2c29b7443b29c7fa6e889d90260801c5b6110008216156126d8576fd097f3bdfd2022b8845ad8f792aa58250260801c5b6120008216156126f8576fa9f746462d870fdf8a65dc1f90e061e50260801c5b614000821615612718576f70d869a156d2a1b890bb3df62baf32f70260801c5b618000821615612738576f31be135f97d08fd981231505542fcfa60260801c5b62010000821615612759576f09aa508b5b7a84e1c677de54f3e99bc90260801c5b62020000821615612779576e5d6af8dedb81196699c329225ee6040260801c5b62040000821615612798576d2216e584f5fa1ea926041bedfe980260801c5b620800008216156127b5576b048a170391f7dc42444e8fa20260801c5b60008460020b13156127d05780600019816127cc57fe5b0490505b600160201b8106156127e35760016127e6565b60005b60ff16602082901c0192505050919050565b60008080806001600160a01b03808916908a16101581871280159061287d5760006128318989620f42400362ffffff16620f4240612a32565b90508261284a576128458c8c8c60016139d8565b612857565b6128578b8d8c6001613a53565b9550858110612868578a9650612877565b6128748c8b8386613afe565b96505b506128c7565b816128945761288f8b8b8b6000613a53565b6128a1565b6128a18a8c8b60006139d8565b93508388600003106128b5578995506128c7565b6128c48b8a8a60000385613b4a565b95505b6001600160a01b038a811690871614821561292a578080156128e65750815b6128fc576128f7878d8c6001613a53565b6128fe565b855b955080801561290b575081155b6129215761291c878d8c60006139d8565b612923565b845b9450612974565b8080156129345750815b61294a576129458c888c60016139d8565b61294c565b855b9550808015612959575081155b61296f5761296a8c888c6000613a53565b612971565b845b94505b8115801561298457508860000385115b15612990578860000394505b8180156129af57508a6001600160a01b0316876001600160a01b031614155b156129be5785890393506129db565b6129d8868962ffffff168a620f42400362ffffff16613b96565b93505b50505095509550955095915050565b6000600160ff1b82106129fc57600080fd5b5090565b80820382811315600083121514612a1657600080fd5b92915050565b81810182811215600083121514612a1657600080fd5b6000808060001985870986860292508281109083900303905080612a685760008411612a5d57600080fd5b508290049050612adb565b808411612a7457600080fd5b6000848688096000868103871696879004966002600389028118808a02820302808a02820302808a02820302808a02820302808a02820302808a02909103029181900381900460010186841190950394909402919094039290920491909117919091029150505b9392505050565b60008063ffffffff8716612b88576000898661ffff1661ffff8110612b0357fe5b60408051608081018252919092015463ffffffff808216808452600160201b8304600690810b810b900b6020850152600160581b83046001600160a01b031694840194909452600160f81b90910460ff16151560608301529092508a1614612b7457612b71818a8988613bd0565b90505b806020015181604001519250925050612c68565b868803600080612b9d8c8c858c8c8c8c613c73565b91509150816000015163ffffffff168363ffffffff161415612bcf578160200151826040015194509450505050612c68565b805163ffffffff84811691161415612bf7578060200151816040015194509450505050612c68565b8151815160208085015190840151918390039286039163ffffffff80841692908516910360060b81612c2557fe5b05028460200151018263ffffffff168263ffffffff1686604001518660400151036001600160a01b03160281612c5757fe5b048560400151019650965050505050505b97509795505050505050565b600295860b860b60009081526020979097526040909620600181018054909503909455938301805490920390915560038201805463ffffffff600160d81b6001600160a01b03600160381b808504821690960316909402600160381b600160d81b031990921691909117600681810b90960390950b66ffffffffffffff1666ffffffffffffff199095169490941782810485169095039093160263ffffffff60d81b1990931692909217905554600160801b9004600f0b90565b60008082600f0b1215612d9357826001600160801b03168260000384039150816001600160801b031610612d8e576040805162461bcd60e51b81526020600482015260026024820152614c5360f01b604482015290519081900360640190fd5b612a16565b826001600160801b03168284019150816001600160801b03161015612a16576040805162461bcd60e51b81526020600482015260026024820152614c4160f01b604482015290519081900360640190fd5b60006401000276a36001600160a01b03831610801590612e20575073fffd8963efd1fc6a506488495d951d5263988d266001600160a01b038316105b612e55576040805162461bcd60e51b81526020600482015260016024820152602960f91b604482015290519081900360640190fd5b640100000000600160c01b03602083901b166001600160801b03811160071b81811c6001600160401b03811160061b90811c63ffffffff811160051b90811c61ffff811160041b90811c60ff8111600390811b91821c600f811160021b90811c918211600190811b92831c97908811961790941790921717909117171760808110612ee857607f810383901c9150612ef2565b80607f0383901b91505b908002607f81811c60ff83811c9190911c800280831c81831c1c800280841c81841c1c800280851c81851c1c800280861c81861c1c800280871c81871c1c800280881c81881c1c800280891c81891c1c8002808a1c818a1c1c8002808b1c818b1c1c8002808c1c818c1c1c8002808d1c818d1c1c8002808e1c9c81901c9c909c1c80029c8d901c9e9d607f198f0160401b60c09190911c678000000000000000161760c19b909b1c674000000000000000169a909a1760c29990991c672000000000000000169890981760c39790971c671000000000000000169690961760c49590951c670800000000000000169490941760c59390931c670400000000000000169290921760c69190911c670200000000000000161760c79190911c600160381b161760c89190911c6680000000000000161760c99190911c6640000000000000161760ca9190911c6620000000000000161760cb9190911c6610000000000000161760cc9190911c6608000000000000161760cd9190911c66040000000000001617693627a301d71055774c8581026f028f6481ab7f045a5af012a19d003aa9198101608090811d906fdb2df09e81959a81455e260799a0632f8301901d600281810b9083900b146130ef57886001600160a01b03166130d3826124c7565b6001600160a01b031611156130e857816130ea565b805b6130f1565b815b9998505050505050505050565b6000806000898961ffff1661ffff811061311457fe5b60408051608081018252919092015463ffffffff808216808452600160201b8304600690810b810b900b6020850152600160581b83046001600160a01b031694840194909452600160f81b90910460ff1615156060830152909250891614156131835788859250925050612c68565b8461ffff168461ffff161180156131a457506001850361ffff168961ffff16145b156131b1578391506131b5565b8491505b8161ffff168960010161ffff16816131c957fe5b0692506131d881898989613bd0565b8a8461ffff1661ffff81106131e957fe5b825191018054602084015160408501516060909501511515600160f81b026001600160f81b036001600160a01b03909616600160581b027fff0000000000000000000000000000000000000000ffffffffffffffffffffff60069390930b66ffffffffffffff16600160201b026affffffffffffff000000001963ffffffff90971663ffffffff199095169490941795909516929092171692909217929092161790555097509795505050505050565b604080516001600160a01b038481166024830152604480830185905283518084039091018152606490920183526020820180516001600160e01b031663a9059cbb60e01b1781529251825160009485949389169392918291908083835b602083106133155780518252601f1990920191602091820191016132f6565b6001836020036101000a0380198251168184511680821785525050505050509050019150506000604051808303816000865af19150503d8060008114613377576040519150601f19603f3d011682016040523d82523d6000602084013e61337c565b606091505b50915091508180156133aa5750805115806133aa57508080602001905160208110156133a757600080fd5b50515b6133e0576040805162461bcd60e51b81526020600482015260026024820152612a2360f11b604482015290519081900360640190fd5b5050505050565b60008060007f00000000000000000000000000000000000000000000000000000000000000006001600160a01b03166370a0823160e01b3060405160240161342f919061523b565b60408051601f198184030181529181526020820180516001600160e01b03166001600160e01b031990941693909317909252905161346d919061521f565b600060405180830381855afa9150503d80600081146134a8576040519150601f19603f3d011682016040523d82523d6000602084013e6134ad565b606091505b50915091508180156134c157506020815110155b6134ca57600080fd5b808060200190518101906134de9190615189565b9250505090565b80820182811015612a1657600080fd5b60008060007f00000000000000000000000000000000000000000000000000000000000000006001600160a01b03166370a0823160e01b3060405160240161342f919061523b565b80600f81900b81146122ac57600080fd5b600080600061355b6122b1565b61356d84602001518560400151613e6d565b6040805160e0810182526000546001600160a01b0381168252600160a01b8104600290810b810b900b602080840182905261ffff600160b81b8404811685870152600160c81b84048116606080870191909152600160d81b8504909116608086015260ff600160e81b8504811660a0870152600160f01b909404909316151560c0850152885190890151948901519289015193946136119491939092909190613ee5565b93508460600151600f0b60001461378657846020015160020b816020015160020b12156136665761365f61364886602001516124c7565b61365587604001516124c7565b876060015161409a565b9250613786565b846040015160020b816020015160020b121561375c5760045460408201516001600160801b03909116906136b89061369c6122e8565b602085015160608601516080870151600a9493929187916130fe565b6000805461ffff60c81b1916600160c81b61ffff938416021761ffff60b81b1916600160b81b93909216929092021790558151604087015161370891906136fe906124c7565b886060015161409a565b935061372661371a87602001516124c7565b835160608901516140de565b9250613736818760600151612d2e565b600480546001600160801b0319166001600160801b039290921691909117905550613786565b61378361376c86602001516124c7565b61377987604001516124c7565b87606001516140de565b91505b509193909250565b6040805160609490941b6bffffffffffffffffffffffff1916602080860191909152600293840b60e890811b60348701529290930b90911b60378401528051808403601a018152603a90930181528251928201929092206000908152929052902090565b6040805160808101825263ffffffff9283168082526000602083018190529282019290925260016060909101819052835463ffffffff1916909117909116600160f81b17909155908190565b60020b600881901d9161010090910790565b600080821161385e57600080fd5b600160801b821061387157608091821c91015b68010000000000000000821061388957604091821c91015b600160201b821061389c57602091821c91015b6201000082106138ae57601091821c91015b61010082106138bf57600891821c91015b601082106138cf57600491821c91015b600482106138df57600291821c91015b600282106122ac57600101919050565b60008082116138fd57600080fd5b5060ff6001600160801b0382161561391857607f1901613920565b608082901c91505b6001600160401b0382161561393857603f1901613940565b604082901c91505b63ffffffff82161561395557601f190161395d565b602082901c91505b61ffff82161561397057600f1901613978565b601082901c91505b60ff82161561398a5760071901613992565b600882901c91505b600f8216156139a457600319016139ac565b600482901c91505b60038216156139be57600119016139c6565b600282901c91505b60018216156122ac5760001901919050565b6000836001600160a01b0316856001600160a01b031611156139f8579293925b81613a2557613a20836001600160801b03168686036001600160a01b0316600160601b612a32565b613a48565b613a48836001600160801b03168686036001600160a01b0316600160601b613b96565b90505b949350505050565b6000836001600160a01b0316856001600160a01b03161115613a73579293925b600160601b600160e01b03606084901b166001600160a01b038686038116908716613a9d57600080fd5b83613acd57866001600160a01b0316613ac08383896001600160a01b0316612a32565b81613ac757fe5b04613af3565b613af3613ae48383896001600160a01b0316613b96565b886001600160a01b031661410d565b979650505050505050565b600080856001600160a01b031611613b1557600080fd5b6000846001600160801b031611613b2b57600080fd5b81613b3d57613a208585856001614118565b613a4885858560016141f9565b600080856001600160a01b031611613b6157600080fd5b6000846001600160801b031611613b7757600080fd5b81613b8957613a2085858560006141f9565b613a488585856000614118565b6000613ba3848484612a32565b905060008280613baf57fe5b8486091115612adb576000198110613bc657600080fd5b6001019392505050565b613bd8614a19565b600085600001518503905060405180608001604052808663ffffffff1681526020018263ffffffff168660020b0288602001510160060b81526020016000856001600160801b031611613c2c576001613c2e565b845b6001600160801b031663ffffffff60801b608085901b1681613c4c57fe5b048860400151016001600160a01b0316815260200160011515815250915050949350505050565b613c7b614a19565b613c83614a19565b888561ffff1661ffff8110613c9457fe5b60408051608081018252919092015463ffffffff8116808352600160201b8204600690810b810b900b6020840152600160581b82046001600160a01b031693830193909352600160f81b900460ff16151560608201529250613cf8908990896142dc565b15613d30578663ffffffff16826000015163ffffffff161415613d1a57612c68565b81613d2783898988613bd0565b91509150612c68565b888361ffff168660010161ffff1681613d4557fe5b0661ffff1661ffff8110613d5557fe5b60408051608081018252929091015463ffffffff81168352600160201b8104600690810b810b900b60208401526001600160a01b03600160581b8204169183019190915260ff600160f81b90910416151560608201819052909250613e0a57604080516080810182528a5463ffffffff81168252600160201b8104600690810b810b900b6020830152600160581b81046001600160a01b031692820192909252600160f81b90910460ff161515606082015291505b613e19888360000151896142dc565b613e50576040805162461bcd60e51b815260206004820152600360248201526213d31160ea1b604482015290519081900360640190fd5b613e5d898989888761439d565b9150915097509795505050505050565b8060020b8260020b12613e925760405162461bcd60e51b81526004016105429061544d565b620d89e719600283900b1215613eba5760405162461bcd60e51b815260040161054290615560565b620d89e8600282900b1315613ee15760405162461bcd60e51b815260040161054290615527565b5050565b6000613ef4600987878761378e565b60015460025491925090600080600f87900b1561403a576000613f156122e8565b6000805460045492935090918291613f5f91600a9186918591600160a01b810460020b9161ffff600160b81b83048116926001600160801b0390921691600160c81b900416612ae2565b9092509050613f9960078d8b8d8b8b87898b60007f000000000000000000000000000000000000000000000000000000000000000061453b565b9450613fd060078c8b8d8b8b87898b60017f000000000000000000000000000000000000000000000000000000000000000061453b565b935084156140045761400460088d7f00000000000000000000000000000000000000000000000000000000000000006146f4565b83156140365761403660088c7f00000000000000000000000000000000000000000000000000000000000000006146f4565b5050505b60008061404c60078c8c8b8a8a61475a565b909250905061405d878a8484614806565b600089600f0b121561408b57831561407a5761407a60078c61499b565b821561408b5761408b60078b61499b565b50505050505095945050505050565b60008082600f0b126140c0576140bb6140b68585856001613a53565b6129ea565b613a4b565b6140d36140b68585856000036000613a53565b600003949350505050565b60008082600f0b126140fa576140bb6140b685858560016139d8565b6140d36140b685858560000360006139d8565b808204910615150190565b6000811561418b5760006001600160a01b0384111561414e5761414984600160601b876001600160801b0316612a32565b614166565b6001600160801b038516606085901b8161416457fe5b045b905061418361417e6001600160a01b038816836134e5565b6149c7565b915050613a4b565b60006001600160a01b038411156141b9576141b484600160601b876001600160801b0316613b96565b6141d0565b6141d0606085901b6001600160801b03871661410d565b905080866001600160a01b0316116141e757600080fd5b6001600160a01b038616039050613a4b565b600082614207575083613a4b565b600160601b600160e01b03606085901b168215614295576001600160a01b0386168481029085828161423557fe5b041415614266578181018281106142645761425a83896001600160a01b031683613b96565b9350505050613a4b565b505b61428c82614287878a6001600160a01b0316868161428057fe5b04906134e5565b61410d565b92505050613a4b565b6001600160a01b038616848102908582816142ac57fe5b041480156142b957508082115b6142c257600080fd5b80820361425a61417e846001600160a01b038b1684613b96565b60008363ffffffff168363ffffffff161115801561430657508363ffffffff168263ffffffff1611155b15614322578163ffffffff168363ffffffff1611159050612adb565b60008463ffffffff168463ffffffff1611614349578363ffffffff16600160201b01614351565b8363ffffffff165b64ffffffffff16905060008563ffffffff168463ffffffff1611614381578363ffffffff16600160201b01614389565b8363ffffffff165b64ffffffffff169091111595945050505050565b6143a5614a19565b6143ad614a19565b60008361ffff168560010161ffff16816143c357fe5b0661ffff169050600060018561ffff16830103905060005b506002818301048961ffff871682816143f057fe5b0661ffff81106143fc57fe5b60408051608081018252929091015463ffffffff81168352600160201b8104600690810b810b900b60208401526001600160a01b03600160581b8204169183019190915260ff600160f81b90910416151560608201819052909550614466578060010192506143db565b898661ffff16826001018161447757fe5b0661ffff811061448357fe5b60408051608081018252929091015463ffffffff81168352600160201b8104600690810b810b900b60208401526001600160a01b03600160581b8204169183019190915260ff600160f81b909104161515606082015285519094506000906144ed908b908b6142dc565b905080801561450657506145068a8a87600001516142dc565b15614511575061452e565b8061452157600182039250614528565b8160010193505b506143db565b5050509550959350505050565b60028a810b900b600090815260208c90526040812080546001600160801b031682614566828d612d2e565b9050846001600160801b0316816001600160801b031611156145b4576040805162461bcd60e51b81526020600482015260026024820152614c4f60f01b604482015290519081900360640190fd5b6001600160801b038281161590821615811415945015614659578c60020b8e60020b1361464157600183018b9055600283018a9055600383018054600160381b600160d81b031916600160381b6001600160a01b038c16021766ffffffffffffff191666ffffffffffffff60068b900b161763ffffffff60d81b1916600160d81b63ffffffff8a16021790555b6003830180546001600160f81b0316600160f81b1790555b82546001600160801b0319166001600160801b038216178355856146a257825461469d9061469890600160801b9004600f90810b810b908f900b612a1c565b61353d565b6146c3565b82546146c39061469890600160801b9004600f90810b810b908f900b612a00565b8354600f9190910b6001600160801b03908116600160801b0291161790925550909c9b505050505050505050505050565b8060020b8260020b8161470357fe5b0760020b1561471157600080fd5b60008061472c8360020b8560020b8161472657fe5b0561383e565b600191820b820b60009081526020979097526040909620805460ff9097169190911b90951890945550505050565b600285810b80820b60009081526020899052604080822088850b850b83529082209193849391929184918291908a900b126147a0575050600182015460028301546147b3565b8360010154880391508360020154870390505b6000808b60020b8b60020b12156147d5575050600183015460028401546147e8565b84600101548a0391508460020154890390505b92909803979097039b96909503949094039850939650505050505050565b6040805160a08101825285546001600160801b0390811682526001870154602083015260028701549282019290925260038601548083166060830152600160801b900490911660808201526000600f85900b6148a55781516001600160801b031661489d576040805162461bcd60e51b815260206004820152600260248201526104e560f41b604482015290519081900360640190fd5b5080516148b4565b81516148b19086612d2e565b90505b60006148d88360200151860384600001516001600160801b0316600160801b612a32565b905060006148fe8460400151860385600001516001600160801b0316600160801b612a32565b905086600f0b6000146149255787546001600160801b0319166001600160801b0384161788555b60018801869055600288018590556001600160801b03821615158061495357506000816001600160801b0316115b15614991576003880180546001600160801b031981166001600160801b039182168501821617808216600160801b9182900483168501909216021790555b5050505050505050565b600290810b810b6000908152602092909252604082208281556001810183905590810182905560030155565b806001600160a01b03811681146122ac57600080fd5b6040805160e081018252600080825260208201819052918101829052606081018290526080810182905260a0810182905260c081019190915290565b60408051608081018252600080825260208201819052918101829052606081019190915290565b600082601f830112614a50578081fd5b815160206001600160401b0380831115614a6657fe5b614a73828385020161578e565b838152828101908684016080808702890186018a1015614a91578788fd5b875b87811015614b095781838c031215614aa9578889fd5b604080518381018181108982111715614abe57fe5b825284518152888501518982015284820151614ad981615817565b8083830152506060915081850151614af081615817565b9181019190915285529386019391810191600101614a93565b50919998505050505050505050565b80516122ac816157f9565b60008083601f840112614b34578182fd5b5081356001600160401b03811115614b4a578182fd5b602083019150836020828501011115611de857600080fd5b600082601f830112614b72578081fd5b81516001600160401b03811115614b8557fe5b614b98601f8201601f191660200161578e565b818152846020838601011115614bac578283fd5b613a4b8260208301602087016157b1565b8035600281900b81146122ac57600080fd5b80356001600160801b03811681146122ac57600080fd5b80516122ac81615807565b805163ffffffff811681146122ac57600080fd5b80516001600160401b03811681146122ac57600080fd5b80516122ac81615817565b600060208284031215614c38578081fd5b8135612adb816157e1565b60008060008060808587031215614c58578283fd5b8435614c63816157e1565b93506020850135614c73816157f9565b9250604085013591506060850135614c8a816157e1565b939692955090935050565b60008060008060008060a08789031215614cad578384fd5b8635614cb8816157e1565b95506020870135614cc8816157f9565b9450604087013593506060870135614cdf816157e1565b925060808701356001600160401b03811115614cf9578283fd5b614d0589828a01614b23565b979a9699509497509295939492505050565b60008060008060008060a08789031215614d2f578384fd5b8635614d3a816157e1565b9550614d4860208801614bbd565b9450614d5660408801614bbd565b9350614cdf60608801614bcf565b600080600080600060a08688031215614d7b578283fd5b8535614d86816157e1565b9450614d9460208701614bbd565b9350614da260408701614bbd565b9250614db060608701614bcf565b9150614dbe60808701614bcf565b90509295509295909350565b600080600060608486031215614dde578081fd5b8335614de9816157e1565b9250614df760208501614bcf565b9150614e0560408501614bcf565b90509250925092565b600080600080600060808688031215614e25578283fd5b8535614e30816157e1565b9450602086013593506040860135925060608601356001600160401b03811115614e58578182fd5b614e6488828901614b23565b969995985093965092949392505050565b60008060208385031215614e87578182fd5b82356001600160401b0380821115614e9d578384fd5b818501915085601f830112614eb0578384fd5b813581811115614ebe578485fd5b8660208083028501011115614ed1578485fd5b60209290920196919550909350505050565b600060208284031215614ef4578081fd5b8151612adb816157f9565b600060208284031215614f10578081fd5b5035919050565b60008060208385031215614f29578182fd5b82356001600160401b03811115614f3e578283fd5b614f4a85828601614b23565b90969095509350505050565b600060208284031215614f67578081fd5b81358060010b8114612adb578182fd5b600060208284031215614f88578081fd5b612adb82614bbd565b60008060408385031215614fa3578182fd5b614fac83614bbd565b9150614fba60208401614bbd565b90509250929050565b600080600060608486031215614fd7578081fd5b614fe084614bbd565b9250614df760208501614bbd565b600080600060608486031215615002578081fd5b83516001600160401b0380821115615018578283fd5b818601915061016080838903121561502e578384fd5b6150378161578e565b905061504283614c1c565b815261505060208401614bf1565b602082015261506160408401614bf1565b604082015261507260608401614be6565b60608201526080830151608082015261508d60a08401614c05565b60a082015261509e60c08401614c1c565b60c082015260e0830151828111156150b4578485fd5b6150c089828601614b62565b60e0830152506101006150d4818501614bf1565b9082015261012083810151838111156150eb578586fd5b6150f78a828701614a40565b91830191909152506101408381015190820152945061511860208701614b18565b9350604086015191508082111561512d578283fd5b5061513a86828701614b62565b9150509250925092565b60008060408385031215615156578182fd5b61515f83614bcf565b9150614fba60208401614bcf565b60006020828403121561517e578081fd5b8135612adb81615807565b60006020828403121561519a578081fd5b5051919050565b6000602082840312156151b2578081fd5b612adb82614c05565b600080604083850312156151cd578182fd5b82356151d881615817565b915060208301356151e881615817565b809150509250929050565b6000815180845261520b8160208601602086016157b1565b601f01601f19169290920160200192915050565b600082516152318184602087016157b1565b9190910192915050565b6001600160a01b0391909116815260200190565b6001600160a01b039384168152919092166020820152604081019190915260600190565b6001600160a01b039490941684526001600160801b039290921660208401526040830152606082015260800190565b6001600160a01b039390931683526001600160801b03918216602084015216604082015260600190565b604080825283519082018190526000906020906060840190828701845b8281101561530857815160060b845292840192908401906001016152e9565b50505083810382850152845180825285830191830190845b818110156153455783516001600160a01b031683529284019291840191600101615320565b5090979650505050505050565b60006020825282602083015282846040840137818301604090810191909152601f909201601f19160101919050565b60029190910b815260200190565b918252602082015260400190565b94855260208501939093526001600160a01b039190911660408401526001600160801b0316606083015260020b608082015260a00190565b60069390930b83526001600160a01b0391909116602083015263ffffffff16604082015260600190565b90815260200190565b600063ffffffff851682526060602083015261542760608301856151f3565b905060ff83166040830152949350505050565b600060208252612adb60208301846151f3565b602080825260039082015262544c5560e81b604082015260600190565b6020808252600e908201526d1cd95d119959541c9bdd1bd8dbdb60921b604082015260600190565b602080825260029082015261415360f01b604082015260600190565b6020808252600890820152670464c4154535445560c41b604082015260600190565b60208082526003908201526211941360ea1b604082015260600190565b6020808252600490820152630737761760e41b604082015260600190565b602080825260029082015261414960f01b604082015260600190565b60208082526003908201526254554d60e81b604082015260600190565b60208082526002908201526104d360f41b604082015260600190565b602080825260039082015262544c4d60e81b604082015260600190565b60208082526003908201526214d41360ea1b604082015260600190565b6020808252600290820152614d3160f01b604082015260600190565b6020808252600590820152640ccd8c2e6d60db1b604082015260600190565b6020808252600390820152624c4f4b60e81b604082015260600190565b60208082526003908201526249494160e81b604082015260600190565b6001600160801b0391909116815260200190565b6001600160801b03989098168852600f9690960b60208801526040870194909452606086019290925260060b60808501526001600160a01b031660a084015263ffffffff1660c0830152151560e08201526101000190565b6001600160801b0392831681529116602082015260400190565b6001600160801b039390931683526020830191909152604082015260600190565b6001600160801b0395861681526020810194909452604084019290925283166060830152909116608082015260a00190565b6001600160a01b0392909216825260020b602082015260400190565b6001600160a01b0397909716875260029590950b602087015261ffff93841660408701529183166060860152909116608084015260ff1660a0830152151560c082015260e00190565b62ffffff91909116815260200190565b63ffffffff94909416845260069290920b60208401526001600160a01b031660408301521515606082015260800190565b6040518181016001600160401b03811182821017156157a957fe5b604052919050565b60005b838110156157cc5781810151838201526020016157b4565b838111156157db576000848401525b50505050565b6001600160a01b03811681146157f657600080fd5b50565b80151581146157f657600080fd5b61ffff811681146157f657600080fd5b60ff811681146157f657600080fdfe8a36f5a234186d446e36a7df36ace663a05a580d9bea2dd899c6dd76a075d5faa264697066735822122087d0a5b39abf91536276a3a1059b52acff3b951fecea9ad876f8aba04c80b35b64736f6c63430007060033",
    "linkReferences": {}
  },
  "methodIdentifiers": {
    "admin()": "f851a440",
    "burn(int24,int24,uint128)": "a34123a7",
    "collect(address,int24,int24,uint128,uint128)": "4f1eb3d8",
    "collectProtocol(address,uint128,uint128)": "85b66729",
    "fee()": "ddca3f43",
    "feeGrowthGlobal0X128()": "f3058399",
    "feeGrowthGlobal1X128()": "46141319",
    "finishSwap(uint128,uint128)": "3961ea85",
    "flash(address,uint256,uint256,bytes)": "490e6cbc",
    "increaseObservationCardinalityNext(uint16)": "32148f67",
    "initialize(uint160)": "f637731d",
    "liquidity()": "1a686502",
    "maxLiquidityPerTick()": "70cf754a",
    "mint(address,int24,int24,uint128,bytes)": "3c8a7d8d",
    "observations(uint256)": "252c09d7",
    "observe(uint32[])": "883bdbfd",
    "positions(bytes32)": "514ea4bf",
    "protocolFees()": "1ad8b03b",
    "receiveVAA(bytes)": "0efc4d17",
    "setFeeProtocol(uint8,uint8)": "8206a4d1",
    "setWormhole(address)": "d49f53b8",
    "slot0()": "3850c7bd",
    "snapshotCumulativesInside(int24,int24)": "a38807f2",
    "startSwap(address,bool,int256,uint160)": "1a62df66",
    "swap(address,bool,int256,uint160,bytes)": "128acb08",
    "tickBitmap(int16)": "5339c296",
    "tickSpacing()": "d0c93a7c",
    "ticks(int24)": "f30dba93",
    "token0()": "0dfe1681",
    "token1()": "d21220a7"
  },
  "id": 41
}